{
  "contractName": "JewelryToken",
  "abi": [
    {
      "constant": true,
      "inputs": [],
      "name": "lastRewardEthBlockNumber",
      "outputs": [
        {
          "name": "",
          "type": "uint256"
        }
      ],
      "payable": false,
      "stateMutability": "view",
      "type": "function"
    },
    {
      "constant": true,
      "inputs": [],
      "name": "rewardEra",
      "outputs": [
        {
          "name": "",
          "type": "uint256"
        }
      ],
      "payable": false,
      "stateMutability": "view",
      "type": "function"
    },
    {
      "constant": true,
      "inputs": [],
      "name": "_decimals",
      "outputs": [
        {
          "name": "",
          "type": "uint8"
        }
      ],
      "payable": false,
      "stateMutability": "view",
      "type": "function"
    },
    {
      "constant": true,
      "inputs": [],
      "name": "_totalSupply",
      "outputs": [
        {
          "name": "",
          "type": "uint256"
        }
      ],
      "payable": false,
      "stateMutability": "view",
      "type": "function"
    },
    {
      "constant": true,
      "inputs": [],
      "name": "maxSupplyForEra",
      "outputs": [
        {
          "name": "",
          "type": "uint256"
        }
      ],
      "payable": false,
      "stateMutability": "view",
      "type": "function"
    },
    {
      "constant": true,
      "inputs": [],
      "name": "tokensMinted",
      "outputs": [
        {
          "name": "",
          "type": "uint256"
        }
      ],
      "payable": false,
      "stateMutability": "view",
      "type": "function"
    },
    {
      "constant": true,
      "inputs": [
        {
          "name": "",
          "type": "address"
        }
      ],
      "name": "_balances",
      "outputs": [
        {
          "name": "",
          "type": "uint256"
        }
      ],
      "payable": false,
      "stateMutability": "view",
      "type": "function"
    },
    {
      "constant": true,
      "inputs": [],
      "name": "lastRewardTo",
      "outputs": [
        {
          "name": "",
          "type": "address"
        }
      ],
      "payable": false,
      "stateMutability": "view",
      "type": "function"
    },
    {
      "constant": false,
      "inputs": [],
      "name": "renounceOwnership",
      "outputs": [],
      "payable": false,
      "stateMutability": "nonpayable",
      "type": "function"
    },
    {
      "constant": true,
      "inputs": [],
      "name": "epochCount",
      "outputs": [
        {
          "name": "",
          "type": "uint256"
        }
      ],
      "payable": false,
      "stateMutability": "view",
      "type": "function"
    },
    {
      "constant": true,
      "inputs": [],
      "name": "_MAXIMUM_TARGET",
      "outputs": [
        {
          "name": "",
          "type": "uint256"
        }
      ],
      "payable": false,
      "stateMutability": "view",
      "type": "function"
    },
    {
      "constant": true,
      "inputs": [],
      "name": "miningTarget",
      "outputs": [
        {
          "name": "",
          "type": "uint256"
        }
      ],
      "payable": false,
      "stateMutability": "view",
      "type": "function"
    },
    {
      "constant": true,
      "inputs": [],
      "name": "challengeNumber",
      "outputs": [
        {
          "name": "",
          "type": "bytes32"
        }
      ],
      "payable": false,
      "stateMutability": "view",
      "type": "function"
    },
    {
      "constant": true,
      "inputs": [],
      "name": "owner",
      "outputs": [
        {
          "name": "",
          "type": "address"
        }
      ],
      "payable": false,
      "stateMutability": "view",
      "type": "function"
    },
    {
      "constant": true,
      "inputs": [],
      "name": "isOwner",
      "outputs": [
        {
          "name": "",
          "type": "bool"
        }
      ],
      "payable": false,
      "stateMutability": "view",
      "type": "function"
    },
    {
      "constant": true,
      "inputs": [],
      "name": "_symbol",
      "outputs": [
        {
          "name": "",
          "type": "string"
        }
      ],
      "payable": false,
      "stateMutability": "view",
      "type": "function"
    },
    {
      "constant": true,
      "inputs": [],
      "name": "_BLOCKS_PER_READJUSTMENT",
      "outputs": [
        {
          "name": "",
          "type": "uint256"
        }
      ],
      "payable": false,
      "stateMutability": "view",
      "type": "function"
    },
    {
      "constant": true,
      "inputs": [
        {
          "name": "",
          "type": "address"
        },
        {
          "name": "",
          "type": "address"
        }
      ],
      "name": "_allowed",
      "outputs": [
        {
          "name": "",
          "type": "uint256"
        }
      ],
      "payable": false,
      "stateMutability": "view",
      "type": "function"
    },
    {
      "constant": true,
      "inputs": [],
      "name": "lastRewardAmount",
      "outputs": [
        {
          "name": "",
          "type": "uint256"
        }
      ],
      "payable": false,
      "stateMutability": "view",
      "type": "function"
    },
    {
      "constant": true,
      "inputs": [],
      "name": "latestDifficultyPeriodStarted",
      "outputs": [
        {
          "name": "",
          "type": "uint256"
        }
      ],
      "payable": false,
      "stateMutability": "view",
      "type": "function"
    },
    {
      "constant": true,
      "inputs": [],
      "name": "_name",
      "outputs": [
        {
          "name": "",
          "type": "string"
        }
      ],
      "payable": false,
      "stateMutability": "view",
      "type": "function"
    },
    {
      "constant": true,
      "inputs": [],
      "name": "_MINIMUM_TARGET",
      "outputs": [
        {
          "name": "",
          "type": "uint256"
        }
      ],
      "payable": false,
      "stateMutability": "view",
      "type": "function"
    },
    {
      "constant": false,
      "inputs": [
        {
          "name": "newOwner",
          "type": "address"
        }
      ],
      "name": "transferOwnership",
      "outputs": [],
      "payable": false,
      "stateMutability": "nonpayable",
      "type": "function"
    },
    {
      "inputs": [],
      "payable": false,
      "stateMutability": "nonpayable",
      "type": "constructor"
    },
    {
      "payable": true,
      "stateMutability": "payable",
      "type": "fallback"
    },
    {
      "anonymous": false,
      "inputs": [
        {
          "indexed": true,
          "name": "from",
          "type": "address"
        },
        {
          "indexed": false,
          "name": "reward_amount",
          "type": "uint256"
        },
        {
          "indexed": false,
          "name": "epochCount",
          "type": "uint256"
        },
        {
          "indexed": false,
          "name": "newChallengeNumber",
          "type": "bytes32"
        }
      ],
      "name": "Mint",
      "type": "event"
    },
    {
      "anonymous": false,
      "inputs": [
        {
          "indexed": true,
          "name": "previousOwner",
          "type": "address"
        },
        {
          "indexed": true,
          "name": "newOwner",
          "type": "address"
        }
      ],
      "name": "OwnershipTransferred",
      "type": "event"
    },
    {
      "anonymous": false,
      "inputs": [
        {
          "indexed": true,
          "name": "from",
          "type": "address"
        },
        {
          "indexed": true,
          "name": "to",
          "type": "address"
        },
        {
          "indexed": false,
          "name": "value",
          "type": "uint256"
        }
      ],
      "name": "Transfer",
      "type": "event"
    },
    {
      "anonymous": false,
      "inputs": [
        {
          "indexed": true,
          "name": "owner",
          "type": "address"
        },
        {
          "indexed": true,
          "name": "spender",
          "type": "address"
        },
        {
          "indexed": false,
          "name": "value",
          "type": "uint256"
        }
      ],
      "name": "Approval",
      "type": "event"
    },
    {
      "constant": false,
      "inputs": [
        {
          "name": "nonce",
          "type": "uint256"
        },
        {
          "name": "challenge_digest",
          "type": "bytes32"
        }
      ],
      "name": "mint",
      "outputs": [
        {
          "name": "success",
          "type": "bool"
        }
      ],
      "payable": false,
      "stateMutability": "nonpayable",
      "type": "function"
    },
    {
      "constant": true,
      "inputs": [],
      "name": "getChallengeNumber",
      "outputs": [
        {
          "name": "",
          "type": "bytes32"
        }
      ],
      "payable": false,
      "stateMutability": "view",
      "type": "function"
    },
    {
      "constant": true,
      "inputs": [],
      "name": "getMiningDifficulty",
      "outputs": [
        {
          "name": "",
          "type": "uint256"
        }
      ],
      "payable": false,
      "stateMutability": "view",
      "type": "function"
    },
    {
      "constant": true,
      "inputs": [],
      "name": "getMiningTarget",
      "outputs": [
        {
          "name": "",
          "type": "uint256"
        }
      ],
      "payable": false,
      "stateMutability": "view",
      "type": "function"
    },
    {
      "constant": true,
      "inputs": [],
      "name": "getMiningReward",
      "outputs": [
        {
          "name": "",
          "type": "uint256"
        }
      ],
      "payable": false,
      "stateMutability": "view",
      "type": "function"
    },
    {
      "constant": true,
      "inputs": [
        {
          "name": "nonce",
          "type": "uint256"
        },
        {
          "name": "challenge_digest",
          "type": "bytes32"
        },
        {
          "name": "challenge_number",
          "type": "bytes32"
        }
      ],
      "name": "getMintDigest",
      "outputs": [
        {
          "name": "",
          "type": "bytes32"
        }
      ],
      "payable": false,
      "stateMutability": "view",
      "type": "function"
    },
    {
      "constant": true,
      "inputs": [
        {
          "name": "nonce",
          "type": "uint256"
        },
        {
          "name": "challenge_digest",
          "type": "bytes32"
        },
        {
          "name": "challenge_number",
          "type": "bytes32"
        },
        {
          "name": "testTarget",
          "type": "uint256"
        }
      ],
      "name": "checkMintSolution",
      "outputs": [
        {
          "name": "",
          "type": "bool"
        }
      ],
      "payable": false,
      "stateMutability": "view",
      "type": "function"
    },
    {
      "constant": true,
      "inputs": [],
      "name": "totalSupply",
      "outputs": [
        {
          "name": "",
          "type": "uint256"
        }
      ],
      "payable": false,
      "stateMutability": "view",
      "type": "function"
    },
    {
      "constant": true,
      "inputs": [
        {
          "name": "owner",
          "type": "address"
        }
      ],
      "name": "balanceOf",
      "outputs": [
        {
          "name": "",
          "type": "uint256"
        }
      ],
      "payable": false,
      "stateMutability": "view",
      "type": "function"
    },
    {
      "constant": true,
      "inputs": [
        {
          "name": "owner",
          "type": "address"
        },
        {
          "name": "spender",
          "type": "address"
        }
      ],
      "name": "allowance",
      "outputs": [
        {
          "name": "",
          "type": "uint256"
        }
      ],
      "payable": false,
      "stateMutability": "view",
      "type": "function"
    },
    {
      "constant": false,
      "inputs": [
        {
          "name": "to",
          "type": "address"
        },
        {
          "name": "value",
          "type": "uint256"
        }
      ],
      "name": "transfer",
      "outputs": [
        {
          "name": "",
          "type": "bool"
        }
      ],
      "payable": false,
      "stateMutability": "nonpayable",
      "type": "function"
    },
    {
      "constant": false,
      "inputs": [
        {
          "name": "spender",
          "type": "address"
        },
        {
          "name": "value",
          "type": "uint256"
        }
      ],
      "name": "approve",
      "outputs": [
        {
          "name": "",
          "type": "bool"
        }
      ],
      "payable": false,
      "stateMutability": "nonpayable",
      "type": "function"
    },
    {
      "constant": false,
      "inputs": [
        {
          "name": "from",
          "type": "address"
        },
        {
          "name": "to",
          "type": "address"
        },
        {
          "name": "value",
          "type": "uint256"
        }
      ],
      "name": "transferFrom",
      "outputs": [
        {
          "name": "",
          "type": "bool"
        }
      ],
      "payable": false,
      "stateMutability": "nonpayable",
      "type": "function"
    },
    {
      "constant": false,
      "inputs": [
        {
          "name": "spender",
          "type": "address"
        },
        {
          "name": "addedValue",
          "type": "uint256"
        }
      ],
      "name": "increaseAllowance",
      "outputs": [
        {
          "name": "",
          "type": "bool"
        }
      ],
      "payable": false,
      "stateMutability": "nonpayable",
      "type": "function"
    },
    {
      "constant": false,
      "inputs": [
        {
          "name": "spender",
          "type": "address"
        },
        {
          "name": "subtractedValue",
          "type": "uint256"
        }
      ],
      "name": "decreaseAllowance",
      "outputs": [
        {
          "name": "",
          "type": "bool"
        }
      ],
      "payable": false,
      "stateMutability": "nonpayable",
      "type": "function"
    },
    {
      "constant": false,
      "inputs": [
        {
          "name": "spender",
          "type": "address"
        },
        {
          "name": "tokens",
          "type": "uint256"
        },
        {
          "name": "data",
          "type": "bytes"
        }
      ],
      "name": "approveAndCall",
      "outputs": [
        {
          "name": "success",
          "type": "bool"
        }
      ],
      "payable": false,
      "stateMutability": "nonpayable",
      "type": "function"
    },
    {
      "constant": false,
      "inputs": [
        {
          "name": "tokenAddress",
          "type": "address"
        },
        {
          "name": "tokens",
          "type": "uint256"
        }
      ],
      "name": "transferAnyERC20Token",
      "outputs": [
        {
          "name": "success",
          "type": "bool"
        }
      ],
      "payable": false,
      "stateMutability": "nonpayable",
      "type": "function"
    }
  ],
  "bytecode": "0x608060405261040060095562010000600a557d040000000000000000000000000000000000000000000000000000000000600b556013805460ff191690553480156200004a57600080fd5b5060008054600160a060020a0319163317808255604051600160a060020a039190911691907f8be0079c531659141344cd1fd0a4f28419497f9722a3daafe3b4186f6b6457e0908290a360408051808201909152600c8082527f4a6577656c7279546f6b656e00000000000000000000000000000000000000006020909201918252620000da916001916200051b565b506040805180820190915260038082527f4a4c540000000000000000000000000000000000000000000000000000000000602090920191825262000121916002916200051b565b506003805460ff1916600817908190556301406f4060ff918216600a0a0260045560135416156200015157600080fd5b6013805460ff1916600117905560006015819055600e556004546200018690600264010000000062001175620001ac82021704565b600f55600b54600c5543600755620001a6640100000000620001d6810204565b620005bd565b600080808311620001bc57600080fd5b8284811515620001c857fe5b0490508091505b5092915050565b600f5462000208620001f0640100000000620002ab810204565b601554906401000000006200119d620002e082021704565b1180156200021857506027600e54105b156200022857600e805460010190555b600e546004546200024d9160010160020a64010000000062001175620001ac82021704565b60045403600f55600854620002729060016401000000006200119d620002e082021704565b6008819055600954908115156200028557fe5b061515620002a057620002a0640100000000620002fa810204565b600019430140600d55565b600e54600354600091620002da9160ff16600a0a6032029060020a640100000000620001ac8102620011751704565b90505b90565b600082820183811015620002f357600080fd5b9392505050565b600754600954439190910390603c8102600080808084871015620003ee576200034d876200033887606464010000000062001515620004b582021704565b9064010000000062001175620001ac82021704565b9350620003866103e86200037186606464010000000062001253620004e782021704565b9064010000000062001543620004ff82021704565b9250620003e5620003cd84620003b86107d0600c54620001ac6401000000000262001175179091906401000000009004565b9064010000000062001515620004b582021704565b600c549064010000000062001253620004e782021704565b600c5562000480565b6200040e856200033889606464010000000062001515620004b582021704565b9150620004326103e86200037184606464010000000062001253620004e782021704565b90506200047c6200046482620003b86107d0600c54620001ac6401000000000262001175179091906401000000009004565b600c54906401000000006200119d620002e082021704565b600c555b43600755600a54600c5410156200049857600a54600c555b600b54600c541115620004ac57600b54600c555b50505050505050565b600080831515620004ca5760009150620001cf565b50828202828482811515620004db57fe5b0414620002f357600080fd5b60008083831115620004f857600080fd5b5050900390565b6000818311156200051257508062000515565b50815b92915050565b828054600181600116156101000203166002900490600052602060002090601f016020900481019282601f106200055e57805160ff19168380011785556200058e565b828001600101855582156200058e579182015b828111156200058e57825182559160200191906001019062000571565b506200059c929150620005a0565b5090565b620002dd91905b808211156200059c5760008155600101620005a7565b61158780620005cd6000396000f3006080604052600436106101ed5763ffffffff7c0100000000000000000000000000000000000000000000000000000000600035041663095ea7b381146101f2578063163aa00d1461022a57806317da485f146102515780631801fbe51461026657806318160ddd1461028157806323b872dd146102965780632d38bf7a146102c057806332424aa3146102d557806332e997081461030057806339509351146103155780633eaaf86b14610339578063490203a71461034e5780634ef37628146103635780634fa972e1146103785780636de9f32b1461038d5780636ebcf607146103a25780636fd396d6146103c357806370a08231146103f4578063715018a61461041557806381269a561461042c578063829965cc1461044d57806387a2a9d6146104625780638a769d35146104775780638ae0368b1461048c5780638da5cb5b146104a15780638f32d59b146104b657806397566aa0146104cb578063a457c2d7146104e9578063a9059cbb1461050d578063b09f126614610531578063b5ade81b146105bb578063ba0fb861146105d0578063bafedcaa146105f7578063cae9ca511461060c578063cb9ae70714610675578063d28d88521461068a578063dc39d06d1461069f578063dc6e9cf9146106c3578063dd62ed3e146106d8578063f2fde38b146106ff575b600080fd5b3480156101fe57600080fd5b50610216600160a060020a0360043516602435610720565b604080519115158252519081900360200190f35b34801561023657600080fd5b5061023f61079f565b60408051918252519081900360200190f35b34801561025d57600080fd5b5061023f6107a5565b34801561027257600080fd5b506102166004356024356107c3565b34801561028d57600080fd5b5061023f610989565b3480156102a257600080fd5b50610216600160a060020a03600435811690602435166044356109bb565b3480156102cc57600080fd5b5061023f610a58565b3480156102e157600080fd5b506102ea610a5e565b6040805160ff9092168252519081900360200190f35b34801561030c57600080fd5b5061023f610a67565b34801561032157600080fd5b50610216600160a060020a0360043516602435610a6d565b34801561034557600080fd5b5061023f610b1d565b34801561035a57600080fd5b5061023f610b23565b34801561036f57600080fd5b5061023f610b42565b34801561038457600080fd5b5061023f610b48565b34801561039957600080fd5b5061023f610b4e565b3480156103ae57600080fd5b5061023f600160a060020a0360043516610b54565b3480156103cf57600080fd5b506103d8610b66565b60408051600160a060020a039092168252519081900360200190f35b34801561040057600080fd5b5061023f600160a060020a0360043516610b75565b34801561042157600080fd5b5061042a610b90565b005b34801561043857600080fd5b50610216600435602435604435606435610bfa565b34801561045957600080fd5b5061023f610cae565b34801561046e57600080fd5b5061023f610cb4565b34801561048357600080fd5b5061023f610cba565b34801561049857600080fd5b5061023f610cc0565b3480156104ad57600080fd5b506103d8610cc6565b3480156104c257600080fd5b50610216610cd5565b3480156104d757600080fd5b5061023f600435602435604435610ce6565b3480156104f557600080fd5b50610216600160a060020a0360043516602435610d84565b34801561051957600080fd5b50610216600160a060020a0360043516602435610dcf565b34801561053d57600080fd5b50610546610de5565b6040805160208082528351818301528351919283929083019185019080838360005b83811015610580578181015183820152602001610568565b50505050905090810190601f1680156105ad5780820380516001836020036101000a031916815260200191505b509250505060405180910390f35b3480156105c757600080fd5b5061023f610e70565b3480156105dc57600080fd5b5061023f600160a060020a0360043581169060243516610e76565b34801561060357600080fd5b5061023f610e93565b34801561061857600080fd5b50604080516020600460443581810135601f8101849004840285018401909552848452610216948235600160a060020a0316946024803595369594606494920191908190840183828082843750949750610e999650505050505050565b34801561068157600080fd5b5061023f610ffa565b34801561069657600080fd5b50610546611000565b3480156106ab57600080fd5b50610216600160a060020a036004351660243561105a565b3480156106cf57600080fd5b5061023f611125565b3480156106e457600080fd5b5061023f600160a060020a036004358116906024351661112b565b34801561070b57600080fd5b5061042a600160a060020a0360043516611156565b6000600160a060020a038316151561073757600080fd5b336000818152600660209081526040808320600160a060020a03881680855290835292819020869055805186815290519293927f8c5be1e5ebec7d5bd14f71427d1e84f3dd0314c0f7b2291e5b200ac8c7c3b925929181900390910190a35060015b92915050565b60125481565b60006107be600c54600b5461117590919063ffffffff16565b905090565b600d54604080516020808201939093526c01000000000000000000000000330281830152605480820186905282518083039091018152607490910191829052805160009384938493849390928291908401908083835b602083106108385780518252601f199092019160209182019101610819565b5181516020939093036101000a6000190180199091169216919091179052604051920182900390912095505050858414905061087357600080fd5b600c54831061088157600080fd5b600d546000908152601460205260409020805490849055915081156108a557600080fd5b6108ad610b23565b336000908152600560205260409020549091506108d0908263ffffffff61119d16565b336000908152600560205260409020556015546108f3908263ffffffff61119d16565b6015819055600f54101561090357fe5b6010805473ffffffffffffffffffffffffffffffffffffffff1916331790556011819055436012556109336111b6565b600854600d54604080518481526020810193909352828101919091525133917fcf6fbb9dcea7d07263ab4f5c3a92f53af33dffc421d9d121e1c74b307e68189d919081900360600190a250600195945050505050565b6000805260056020527f05b8ccbb9d4d8fb16ea74ce3c29a41f1b461fbdaff4714a0d9a8eb05499746bc546004540390565b600160a060020a03831660009081526006602090815260408083203384529091528120548211156109eb57600080fd5b600160a060020a0384166000908152600660209081526040808320338452909152902054610a1f908363ffffffff61125316565b600160a060020a0385166000908152600660209081526040808320338452909152902055610a4e84848461126a565b5060019392505050565b600e5481565b60035460ff1681565b600c5490565b6000600160a060020a0383161515610a8457600080fd5b336000908152600660209081526040808320600160a060020a0387168452909152902054610ab8908363ffffffff61119d16565b336000818152600660209081526040808320600160a060020a0389168085529083529281902085905580519485525191937f8c5be1e5ebec7d5bd14f71427d1e84f3dd0314c0f7b2291e5b200ac8c7c3b925929081900390910190a350600192915050565b60045481565b600e546003546000916107be9160ff16600a0a6032029060020a611175565b600d5490565b600f5481565b60155481565b60056020526000908152604090205481565b601054600160a060020a031681565b600160a060020a031660009081526005602052604090205490565b610b98610cd5565b1515610ba357600080fd5b60008054604051600160a060020a03909116907f8be0079c531659141344cd1fd0a4f28419497f9722a3daafe3b4186f6b6457e0908390a36000805473ffffffffffffffffffffffffffffffffffffffff19169055565b6040805160208082018590526c010000000000000000000000003302828401526054808301889052835180840390910181526074909201928390528151600093849392909182918401908083835b60208310610c675780518252601f199092019160209182019101610c48565b5181516020939093036101000a60001901801990911692169190911790526040519201829003909120935050508382109050610ca257600080fd5b93909314949350505050565b60085481565b600b5481565b600c5481565b600d5481565b600054600160a060020a031690565b600054600160a060020a0316331490565b6040805160208082018490526c010000000000000000000000003302828401526054808301879052835180840390910181526074909201928390528151600093918291908401908083835b60208310610d505780518252601f199092019160209182019101610d31565b5181516020939093036101000a60001901801990911692169190911790526040519201829003909120979650505050505050565b6000600160a060020a0383161515610d9b57600080fd5b336000908152600660209081526040808320600160a060020a0387168452909152902054610ab8908363ffffffff61125316565b6000610ddc33848461126a565b50600192915050565b6002805460408051602060018416156101000260001901909316849004601f81018490048402820184019092528181529291830182828015610e685780601f10610e3d57610100808354040283529160200191610e68565b820191906000526020600020905b815481529060010190602001808311610e4b57829003601f168201915b505050505081565b60095481565b600660209081526000928352604080842090915290825290205481565b60115481565b336000818152600660209081526040808320600160a060020a038816808552908352818420879055815187815291519394909390927f8c5be1e5ebec7d5bd14f71427d1e84f3dd0314c0f7b2291e5b200ac8c7c3b925928290030190a36040517f8f4ffcb10000000000000000000000000000000000000000000000000000000081523360048201818152602483018690523060448401819052608060648501908152865160848601528651600160a060020a038a1695638f4ffcb195948a94938a939192909160a490910190602085019080838360005b83811015610f89578181015183820152602001610f71565b50505050905090810190601f168015610fb65780820380516001836020036101000a031916815260200191505b5095505050505050600060405180830381600087803b158015610fd857600080fd5b505af1158015610fec573d6000803e3d6000fd5b506001979650505050505050565b60075481565b60018054604080516020600284861615610100026000190190941693909304601f81018490048402820184019092528181529291830182828015610e685780601f10610e3d57610100808354040283529160200191610e68565b6000611064610cd5565b151561106f57600080fd5b82600160a060020a031663a9059cbb611086610cc6565b846040518363ffffffff167c01000000000000000000000000000000000000000000000000000000000281526004018083600160a060020a0316600160a060020a0316815260200182815260200192505050602060405180830381600087803b1580156110f257600080fd5b505af1158015611106573d6000803e3d6000fd5b505050506040513d602081101561111c57600080fd5b50519392505050565b600a5481565b600160a060020a03918216600090815260066020908152604080832093909416825291909152205490565b61115e610cd5565b151561116957600080fd5b6111728161135e565b50565b60008080831161118457600080fd5b828481151561118f57fe5b0490508091505b5092915050565b6000828201838110156111af57600080fd5b9392505050565b600f546111d36111c4610b23565b6015549063ffffffff61119d16565b1180156111e257506027600e54105b156111f157600e805460010190555b600e5460045461120c9160010160020a63ffffffff61117516565b60045403600f5560085461122790600163ffffffff61119d16565b60088190556009549081151561123957fe5b061515611248576112486113db565b600019430140600d55565b6000808383111561126357600080fd5b5050900390565b600160a060020a03831660009081526005602052604090205481111561128f57600080fd5b600160a060020a03821615156112a457600080fd5b600160a060020a0383166000908152600560205260409020546112cd908263ffffffff61125316565b600160a060020a038085166000908152600560205260408082209390935590841681522054611302908263ffffffff61119d16565b600160a060020a0380841660008181526005602090815260409182902094909455805185815290519193928716927fddf252ad1be2c89b69c2b068fc378daa952ba7f163c4a11628f55a4df523b3ef92918290030190a3505050565b600160a060020a038116151561137357600080fd5b60008054604051600160a060020a03808516939216917f8be0079c531659141344cd1fd0a4f28419497f9722a3daafe3b4186f6b6457e091a36000805473ffffffffffffffffffffffffffffffffffffffff1916600160a060020a0392909216919091179055565b600754600954439190910390603c8102600080808084871015611481576114198761140d87606463ffffffff61151516565b9063ffffffff61117516565b935061143e6103e861143286606463ffffffff61125316565b9063ffffffff61154316565b925061147961146a8461145e6107d0600c5461117590919063ffffffff16565b9063ffffffff61151516565b600c549063ffffffff61125316565b600c556114e2565b6114968561140d89606463ffffffff61151516565b91506114af6103e861143284606463ffffffff61125316565b90506114de6114cf8261145e6107d0600c5461117590919063ffffffff16565b600c549063ffffffff61119d16565b600c555b43600755600a54600c5410156114f957600a54600c555b600b54600c54111561150c57600b54600c555b50505050505050565b6000808315156115285760009150611196565b5082820282848281151561153857fe5b04146111af57600080fd5b600081831115611554575080610799565b50909190505600a165627a7a72305820c03a33c4d7f0c4f1da42e3d1bcc5db6e2d711b34c5450d0a519b0c491503390c0029",
  "source": "pragma solidity ^0.4.24;\n\nimport \"openzeppelin-solidity/contracts/math/SafeMath.sol\";\nimport \"openzeppelin-solidity/contracts/token/ERC20/IERC20.sol\";\nimport \"openzeppelin-solidity/contracts/ownership/Ownable.sol\";\n\nlibrary ExtendedMath {\n    //    \n    function limitLessThan(uint256 a, uint256 b) internal pure returns (uint256 c) {\n        if( a> b ) return b;\n\n        return a;\n    }\n}\n\ninterface ApproveAndCallFallBack {\n\n    function receiveApproval(address from, uint256 tokens, address token, bytes data) external;\n\n}\n\ninterface I0xBTC {\n    function mint(uint256 nonce, bytes32 challenge_digest) external returns (bool success);\n\n    function getChallengeNumber() external view returns (bytes32);\n\n    function getMiningDifficulty() external view returns (uint);\n\n    function getMiningTarget() external view returns (uint);\n\n    function getMiningReward() external view returns (uint);\n\n    function getMintDigest(uint256 nonce, bytes32 challenge_digest, bytes32 challenge_number) external view returns (bytes32 digesttest);\n\n    function checkMintSolution(uint256 nonce, bytes32 challenge_digest, bytes32 challenge_number, uint testTarget) external view returns (bool success);\n}\n\n// Mining Token (  JewelryToken  )\ncontract JewelryToken is IERC20, I0xBTC, Ownable{\n    using SafeMath for uint256;\n    using ExtendedMath for uint256;\n\n    string public _name;\n    string public _symbol;\n    uint8 public _decimals;\n    uint256 public _totalSupply;\n\n    mapping (address => uint256) public _balances;\n    mapping (address => mapping (address => uint256)) public _allowed;\n\n    //    block number\n    uint256 public latestDifficultyPeriodStarted;\n\n    // number of 'block' mined\n    uint256 public epochCount;\n    //   \n    uint256 public _BLOCKS_PER_READJUSTMENT = 1024;\n\n    // a little & big number (target)\n    uint256 public _MINIMUM_TARGET = 2**16;\n    uint256 public  _MAXIMUM_TARGET = 2**234;\n\n    uint256 public miningTarget;\n\n    //  reward  minting   challenge number  ( recent ethereum block hash)\n    bytes32 public challengeNumber;\n\n    //  ?      \n    uint256 public rewardEra;\n    uint256 public maxSupplyForEra;\n\n    //  reward \n    address public lastRewardTo;\n    uint256 public lastRewardAmount;\n    uint256 public lastRewardEthBlockNumber;\n\n    bool locked = false;\n\n    mapping(bytes32 => bytes32) solutionForChallenge;\n\n    uint256 public tokensMinted;\n\n    event Mint(address indexed from, uint reward_amount, uint epochCount, bytes32 newChallengeNumber);\n\n    constructor() public {\n        _name = \"JewelryToken\";\n        _symbol = \"JLT\";\n        _decimals = 8;\n        _totalSupply = 21000000 * 10**uint(_decimals);\n\n        if(locked) revert();\n        locked = true;\n\n        tokensMinted = 0;\n\n        rewardEra = 0;\n        maxSupplyForEra = _totalSupply.div(2);\n        miningTarget = _MAXIMUM_TARGET;\n        latestDifficultyPeriodStarted = block.number;\n\n        _startNewMiningEpoch();\n    }\n\n    function() public payable {\n        revert();\n    }\n\n    // ----------------------------------------------------------------------------\n    // 0xBTC \n\n\n    function mint(uint256 nonce, bytes32 challenge_digest) public returns (bool success) {\n\n        //     {  block hash, msg.sender, nonce }   .\n        bytes32 digest = keccak256(abi.encodePacked(challengeNumber, msg.sender, nonce));\n\n        // challenge digest     .\n        require(digest == challenge_digest);\n\n        // digest  target   \n        require(uint256(digest) < miningTarget);\n\n        //  challenge   reward  .\n        bytes32 solution = solutionForChallenge[challengeNumber];\n        solutionForChallenge[challengeNumber] = digest;\n        require(solution == 0x0); // ? \n\n        // reward  token \n        uint256 reward_amount = getMiningReward();\n        _balances[msg.sender] = _balances[msg.sender].add(reward_amount);\n        tokensMinted = tokensMinted.add(reward_amount);\n\n        //  era   supply   minting   .\n        assert(tokensMinted <= maxSupplyForEra);\n\n        //  reward   \n        lastRewardTo = msg.sender;\n        lastRewardAmount = reward_amount;\n        lastRewardEthBlockNumber = block.number;\n\n        _startNewMiningEpoch();\n\n        emit Mint(msg.sender, reward_amount, epochCount, challengeNumber);\n\n        return true;\n    }\n\n    function getChallengeNumber() public view returns (bytes32) {\n        return challengeNumber;\n    }\n\n    function getMiningDifficulty() public view returns (uint) {\n        return _MAXIMUM_TARGET.div(miningTarget);\n    }\n\n    function getMiningTarget() public view returns (uint) {\n        return miningTarget;\n    }\n\n    //    reawrdEra     .\n    function getMiningReward() public view returns (uint) {\n        return (50 * 10**uint(_decimals) ).div( 2**rewardEra ) ;\n    }\n\n    function getMintDigest(uint256 nonce, bytes32 challenge_digest, bytes32 challenge_number) public view returns (bytes32) {\n        return keccak256(abi.encodePacked(challenge_number,msg.sender,nonce));\n    }\n\n    // mining software  \n    function checkMintSolution(uint256 nonce, bytes32 challenge_digest, bytes32 challenge_number, uint testTarget) public view returns (bool) {\n        bytes32 digest = keccak256(abi.encodePacked(challenge_number,msg.sender,nonce));\n        require(uint256(digest) < testTarget);\n        return (digest == challenge_digest);\n    }\n\n    //   epoch \n    function _startNewMiningEpoch() internal {\n\n        //  mint           \n        // 40        rewardEra ()  .\n        if (tokensMinted.add(getMiningReward()) > maxSupplyForEra && rewardEra < 39) {\n            rewardEra = rewardEra + 1;\n        }\n\n        // max supply  . (reward era    ??)\n        maxSupplyForEra = _totalSupply - _totalSupply.div(2 ** (rewardEra + 1));\n\n        // epoch count   .\n        epochCount = epochCount.add(1);\n\n        // epochCount     count   .\n        if(epochCount % _BLOCKS_PER_READJUSTMENT == 0) {\n            _reAdjustDifficulty();\n        }\n\n        //   block hash  challengeNumber  .\n        challengeNumber = blockhash(block.number - 1);\n    }\n\n    //  .\n    function _reAdjustDifficulty() internal {\n\n        //     ,     block number    (  360  (3600s / 10s))\n        uint256 ethBlocksSinceLastDifficultyPeriod = block.number - latestDifficultyPeriodStarted;\n\n        //     block   ()\n        // btc  10      60   60  .( 1024   60     )\n        uint256 epochsMined = _BLOCKS_PER_READJUSTMENT;\n        uint256 targetEthBlocksPerDiffPeriod = epochsMined * 60;\n\n        //  block        \n        //  block   block    . (  .)\n        if (ethBlocksSinceLastDifficultyPeriod < targetEthBlocksPerDiffPeriod ) {\n            uint256 excess_block_pct = (targetEthBlocksPerDiffPeriod.mul(100)).div(ethBlocksSinceLastDifficultyPeriod);\n            uint256 excess_block_pct_extra = excess_block_pct.sub(100).limitLessThan(1000);\n\n            //  (mining target  )\n            miningTarget = miningTarget.sub(miningTarget.div(2000).mul(excess_block_pct_extra));\n\n        } else {\n            uint256 shortage_block_pct = (ethBlocksSinceLastDifficultyPeriod.mul(100)).div(targetEthBlocksPerDiffPeriod);\n            uint256 shortage_block_pct_extra = shortage_block_pct.sub(100).limitLessThan(1000);\n\n            //  (mining target  )\n            miningTarget = miningTarget.add(miningTarget.div(2000).mul(shortage_block_pct_extra));\n\n        }\n\n        //      starting block number \n        latestDifficultyPeriodStarted = block.number;\n\n\n        //   max/min   \n        if(miningTarget < _MINIMUM_TARGET) {\n            miningTarget = _MINIMUM_TARGET;\n        }\n\n        if(miningTarget > _MAXIMUM_TARGET) {\n            miningTarget = _MAXIMUM_TARGET;\n        }\n    }\n\n    // ----------------------------------------------------------------------------\n    // ERC20 \n\n\n    function totalSupply() external view returns (uint256) {\n        return _totalSupply - _balances[address (0)];\n    }\n\n    function balanceOf(address owner) public view returns (uint256) {\n        return _balances[owner];\n    }\n\n    function allowance(address owner, address spender) public view returns (uint256) {\n        return _allowed[owner][spender];\n    }\n\n    function transfer(address to, uint256 value) public returns (bool) {\n        _transfer(msg.sender, to, value);\n        return true;\n    }\n\n    function approve(address spender, uint256 value) public returns (bool) {\n        require(spender != address(0));\n\n        _allowed[msg.sender][spender] = value;\n        emit Approval(msg.sender, spender, value);\n        return true;\n    }\n\n    function transferFrom(address from, address to, uint256 value) public returns (bool) {\n        require(value <= _allowed[from][msg.sender]);\n\n        _allowed[from][msg.sender] = _allowed[from][msg.sender].sub(value);\n        _transfer(from, to, value);\n        return true;\n    }\n\n    function increaseAllowance(address spender, uint256 addedValue) public returns (bool) {\n        require(spender != address(0));\n\n        _allowed[msg.sender][spender] = (\n        _allowed[msg.sender][spender].add(addedValue));\n        emit Approval(msg.sender, spender, _allowed[msg.sender][spender]);\n        return true;\n    }\n\n    function decreaseAllowance(address spender, uint256 subtractedValue) public returns (bool) {\n        require(spender != address(0));\n\n        _allowed[msg.sender][spender] = (\n        _allowed[msg.sender][spender].sub(subtractedValue));\n        emit Approval(msg.sender, spender, _allowed[msg.sender][spender]);\n        return true;\n    }\n\n    function _transfer(address from, address to, uint256 value) internal {\n        require(value <= _balances[from]);\n        require( to != address(0) );\n\n        _balances[from] = _balances[from].sub(value);\n        _balances[to] = _balances[to].add(value);\n        emit Transfer(from, to, value);\n    }\n\n    // -----------\n    function approveAndCall(address spender, uint tokens, bytes data) public returns (bool success) {\n\n        _allowed[msg.sender][spender] = tokens;\n\n        emit Approval(msg.sender, spender, tokens);\n\n        ApproveAndCallFallBack(spender).receiveApproval(msg.sender, tokens, this, data);\n\n        return true;\n\n    }\n\n    function transferAnyERC20Token(address tokenAddress, uint tokens) public onlyOwner returns (bool success) {\n\n        return IERC20(tokenAddress).transfer(owner(), tokens);\n\n    }\n}",
  "sourcePath": "/Users/kyung/Desktop/workspace/ethereum/smartcontract-practice/ERC20First/contracts/JewelryToken.sol",
  "compiler": {
    "name": "solc",
    "version": "0.4.24+commit.e67f0147.Emscripten.clang"
  },
  "schemaVersion": "2.0.1",
  "updatedAt": "2018-12-17T10:55:05.734Z"
}